{
  "transactions": [
    {
      "hash": "0xd148e44d8d69b8958c12f915970a560e5a0601264d99265282e39097da3e70bd",
      "transactionType": "CALL",
      "contractName": null,
      "contractAddress": "0xe9bc4432732171a8ca73f737c78c129bf4c4c687",
      "function": "mintNft(string)",
      "arguments": [
        "ipfs://bafybeig37ioir76s7mg5oobetncojcm3c3hxasyd4rvid4jqhy4gkaheg4/?filename=0-PUG.json"
      ],
      "transaction": {
        "from": "0x6bbc12fa8fc861b31b26caf4d616cd1d1d8cfc3d",
        "to": "0xe9bc4432732171a8ca73f737c78c129bf4c4c687",
        "gas": "0x40fc0",
        "value": "0x0",
        "input": "0xda86f4a900000000000000000000000000000000000000000000000000000000000000200000000000000000000000000000000000000000000000000000000000000057697066733a2f2f62616679626569673337696f6972373673376d67356f6f6265746e636f6a636d3363336878617379643472766964346a71687934676b61686567342f3f66696c656e616d653d302d5055472e6a736f6e000000000000000000",
        "nonce": "0x2e",
        "chainId": "0xaa36a7"
      },
      "additionalContracts": [],
      "isFixedGasLimit": false
    }
  ],
  "receipts": [
    {
      "status": "0x1",
      "cumulativeGasUsed": "0xb13591",
      "logs": [
        {
          "address": "0xe9bc4432732171a8ca73f737c78c129bf4c4c687",
          "topics": [
            "0xddf252ad1be2c89b69c2b068fc378daa952ba7f163c4a11628f55a4df523b3ef",
            "0x0000000000000000000000000000000000000000000000000000000000000000",
            "0x0000000000000000000000006bbc12fa8fc861b31b26caf4d616cd1d1d8cfc3d",
            "0x0000000000000000000000000000000000000000000000000000000000000000"
          ],
          "data": "0x",
          "blockHash": "0xbae15a8b89dc3b7a78da40680fe1c9d746a856100c31a6a9a6821e359b6403b2",
          "blockNumber": "0x6db846",
          "transactionHash": "0xd148e44d8d69b8958c12f915970a560e5a0601264d99265282e39097da3e70bd",
          "transactionIndex": "0xe9",
          "logIndex": "0xa5",
          "removed": false
        }
      ],
      "logsBloom": "0x00000000000000000000000000000000000000000000000000000000000000000000000000000000000000000000000000000020000000000000000000000000000000000000800000000008800000000000000000000000000000000000000000000000020000000000000000000800000000000020000000000010000000000000000000000000000000000000000000000400000000000000000000000000000000000000000000000000000000000000000000000000004000000000000000000002000000000000000000000000000000000000000000000000000020000000000000000000000000000000000000000000000000000000000000000000",
      "type": "0x2",
      "transactionHash": "0xd148e44d8d69b8958c12f915970a560e5a0601264d99265282e39097da3e70bd",
      "transactionIndex": "0xe9",
      "blockHash": "0xbae15a8b89dc3b7a78da40680fe1c9d746a856100c31a6a9a6821e359b6403b2",
      "blockNumber": "0x6db846",
      "gasUsed": "0x2c6f1",
      "effectiveGasPrice": "0x160d7d541",
      "from": "0x6bbc12fa8fc861b31b26caf4d616cd1d1d8cfc3d",
      "to": "0xe9bc4432732171a8ca73f737c78c129bf4c4c687",
      "contractAddress": null
    }
  ],
  "libraries": [],
  "pending": [],
  "returns": {},
  "timestamp": 1733069426,
  "chain": 11155111,
  "commit": "60f4496"
}